S0120000526F626F74726F6E2D4D2E7372656343
S11300000C9434000C9451000C9451000C94510045
S11300100C9451000C9451000C9451000C94510018
S11300200C9451000C9451000C9451000C94510008
S11300300C9451000C9451000C9451000C945100F8
S11300400C9451000C9451000C94A1000C94C10028
S11300500C9451000C9451000C9451000C945100D8
S11300600C9451000C94510011241FBECFEFD8E022
S1130070DEBFCDBF11E0A0E0B1E0E8E1F3E002C0F3
S113008005900D92AC32B107D9F721E0ACE2B1E0B2
S113009001C01D92A13BB207E1F70E9431010C940B
S11300A08A010C94000084B1876084B98AB1806E9F
S11300B08AB9089584B5836A84BD85B5856085BD94
S11300C0089587BD68BD089585B1887F85B98BB1D2
S11300D08F778BB90895009749F40E9464008BB11F
S11300E080688BB985B1846085B90895892B29F01E
S11300F00E94640085B1836085B908950E946400FC
S11301008BB180688BB985B1826085B908950E94EE
S1130110640085B1856085B908951092C50087E6AD
S11301208093C40086E08093C20088E98093C10074
S113013010926E0110926F0110922C0110922D01F9
S113014008951F920F920FB60F9211248F939F93CD
S1130150EF93FF938091C600E0916F01EF5FEF731F
S1130160E0936F0190916E01F0E0E059FE4F8083BF
S1130170FF91EF919F918F910F900FBE0F901F9061
S113018018951F920F920FB60F9211248F939F937D
S1130190EF93FF9390912D0180912C01981769F0B2
S11301A0E0912C01EF5FEF73E0932C01F0E0E25D4E
S11301B0FE4F80818093C60005C0E1ECF0E08081B1
S11301C08F7D8083FF91EF919F918F910F900FBE50
S11301D00F901F90189590916F0180916E01981760
S11301E0D1F3E0916E01EF5FEF73E0936E01F0E005
S11301F0E059FE4F8081089520912D012F5F2F73C8
S113020090912C012917E1F3E22FF0E0E25DFE4F1B
S1130210808320932D01E1ECF0E080818062808373
S1130220089590916F0180916E01981730F080913C
S11302306F0190916E01891B089580916F019091D7
S11302406E01891B805C0895CF93DF93EC0103C09A
S113025021960E94FC0088818111FACFDF91CF9111
S113026008950E948D0078940E9453000E945A00C1
S113027080E091E00E9424010E941101882309F486
S11302803FC00E94EB008436F9F018F4813699F0EF
S113029024C0833749F0873701F568EC88EC0E9465
S11302A061000E947E001FC068EC88EC0E9461001F
S11302B00E94870018C068EC88EC0E94610080E00E
S11302C090E00E946B000FC068EC88EC0E94610013
S11302D081E090E00E946B0006C087E191E00E94FB
S11302E024010E94640081E08093B0012FEF80E735
S11302F092E0215080409040E1F700C00000BCCF64
S11303008091B001882309F4B7CF0E946400109251
S10B0310B001B2CFF894FFCF55
S11303180D0A4D61696E206C6F6F702072756E6E78
S1130328696E67210D0A004E6F20696E707574201E
S10F033864657465637465640D0A00005C
S9030000FC
